:020000040800F2
:10000000600700200501000895170008B5150008D5
:10001000911700081D0B0008C7230008000000000E
:10002000000000000000000000000000D91D0008D2
:10003000990E000800000000C11C00087D1F000888
:100040001F0100081F0100081F0100081F01000810
:100050001F0100081F0100081F0100081F01000800
:100060001F0100081F0100081F0100081F010008F0
:100070001F0100081F0100081F0100081F010008E0
:100080001F0100081F0100081F0100081F010008D0
:100090001F0100081F0100081F0100081F010008C0
:1000A0001F0100081F0100081F0100081F010008B0
:1000B0001F0100081F0100081F0100081F010008A0
:1000C0001F0100081F0100081F0100081F01000890
:1000D0001F01000859210008912100081F01000894
:1000E0001F0100081F0100081F010008DFF810D0E1
:1000F00000F048FB00480047592E0008AFF300808D
:10010000600700200648804706480047FEE7FEE7F4
:10011000FEE7FEE7FEE7FEE7FEE7FEE7FEE7FEE7B7
:10012000811F0008ED00000880EA010210B502F00E
:100130000043400022D04A001FD0010E01EB1261A3
:10014000C0F35600C2F3560240F4000042F400022D
:10015000A0FB022000047F39140400D0401C50EAA8
:10016000124001D44000491EC2B20C0604EBD0106C
:10017000401C4008802A02D003E0002010BD20F07F
:100180000100002900DA0020184310BD2DE9F04DD0
:1001900081EA030404F0004B21F0004514464FF0BF
:1001A000000A23F0004150EA050220D054EA01027F
:1001B0001DD0C5F30A570246C5F31303C1F313005C
:1001C000C1F30A5640F4801543F48013A7EB0608E8
:1001D000101BD64608F2FD3873EB050002D308F178
:1001E000010801E092185B41B8F1000F03DA00202A
:1001F0000146BDE8F08D00204FF48011064684468C
:100200000EE0171B73EB050705D3121B63EB050309
:1002100006434CEA010C49084FEA300092185B4152
:1002200050EA0107EDD152EA030012D082EA04003D
:1002300083EA0501084305D0101BAB4106D2012219
:10024000002306E000224FF0004302E06FF00102BD
:1002500053101AEB06004CEB085110EB0A0041EB6F
:100260000B01BDE8F04D00F0E7B80EB5C10F80EA14
:10027000E0700844CA07002140F233438DE80E00C5
:100280000A460B4600F0E7F803B000BD20F000403E
:10029000C10DC0F3160040F400007F2901DA0020F0
:1002A0007047962903DCC1F19601C8407047963922
:1002B0008840704700F0004230F000400AD0C10D85
:1002C00001F56071C0F3160042EA0151C20840070F
:1002D0001143704700200146704701F0004330B4DD
:1002E00021F0004150EA010206D00A0DA2F5607229
:1002F000C1F31301002A02DC30BC00207047440F18
:1003000044EAC104C100E01830BC00EBC25000F068
:100310005CB80000002801DBC0F10040002901DBCF
:10032000C1F1004181427047002801DBC0F100406B
:10033000002901DBC1F100418842704730B50B460E
:10034000014600202022012409E021FA02F59D4205
:1003500005D303FA02F5491B04FA02F52844151ED9
:10036000A2F10102F1DC30BD2DE9F05F054600206D
:1003700092469B4688460646814640241BE0284616
:1003800041464746224600F01EFA53465A46C01AD6
:10039000914110D311461846224600F005FA2D1A55
:1003A00067EB01084F4622460120002100F0FCF9CE
:1003B00017EB00094E41201EA4F10104DFDC484682
:1003C00031462A464346BDE8F09F0029A8BF704742
:1003D000401C490008BF20F00100704710B4B0FA7B
:1003E00080FC00FA0CF050EA010404BF10BC704716
:1003F00049B1CCF1200421FA04F411FA0CF118BF30
:10040000012121430843A3EB0C01CB1D4FEA0061FE
:100410004FEA102042BF002010BC704700EBC350D1
:1004200010440029A4BF10BC7047401C490008BFFD
:1004300020F0010010BC704710B5141E73F10004C9
:1004400008DA401C41F1000192185B411A4301D1C6
:1004500020F0010010BD2DE9F04D92469B4611B1F0
:10046000B1FA81F202E0B0FA80F22032904600F058
:100470009BF904460F4640EA0A0041EA0B01534645
:100480005A46084313D0114653EA010019D0C8F167
:100490004002504600F097F905460E465046594630
:1004A000424600F081F9084305D0012004E02046CF
:1004B0003946BDE8F08D0020054346EAE0762C433E
:1004C00037430A986305E40AA0EB08000022FD0AFE
:1004D00044EA47540A3002D500200146E9E7010505
:1004E00010196941DDE9084500196941BDE8F04D81
:1004F000A2E72DE9FE4F804681EA0300C00F0C46BB
:10050000009021F0004123F00045B8EB0200A94122
:1005100005D24046214690461C460B46024623F033
:100520000040104347D0270DC7F30A00C3F30A5118
:100530000290401A019040286BDAC3F3130040F494
:10054000801B0098924620B10023D2EB030A63EB94
:100550000B0B01985946C0F14002504600F024F9B7
:1005600006460D4650465946019A00F03CF910EBFC
:1005700008006141002487EA115284EAE7731A43B4
:1005800040D0009A62B3019A012A4FEA075215DC63
:10059000001B61EB02014FF0004202EA0752CDE975
:1005A0000042001C41F5801132462B46FFF753FFF5
:1005B00003B0BDE8F08F40462146F9E7001B61EB30
:1005C0000201001C41F5801300185B412018A2F5C0
:1005D000001747EB030140EAD570B6196D4111E0F1
:1005E0006D084FEA360645EAC0754FEA0752001B10
:1005F00061EB0201001C41F5801149084FEA30000F
:100600000019514132462B4603B0BDE8F04FFFF7C9
:1006100013BF0098012240000023D0EB020263EBDD
:10062000E073009821464FEAE074B8EB000061EBFC
:100630000401E9E783F000435BE781F0004158E7FC
:100640002DE9FE4F81EA030404F0004421F000414B
:1006500000944FF0000B23F0004350EA01045ED0F9
:1006600052EA03045BD0C3F30A54C1F30A552C4485
:10067000A4F2F3340194A0FB0254C1F3130141F43A
:100680008011C3F3130343F4801301FB024400FB06
:10069000034E840A970A44EA815447EA8357A4FB2D
:1006A000076802958D0A05FB07854FEA932C04FB2A
:1006B0000C542705029D4FEA065847EA1637B5EB5A
:1006C00008056EEB070C870E920E47EA811742EA87
:1006D0008312A7FB0201B6EB0B0164EB00042B0DA8
:1006E00043EA0C335E1844EB1C50DA465146E7FBF4
:1006F0000201C5F313044FEA0B3343EA14534FEAE4
:100700000432019C43EA0603A4F10C040294009C09
:10071000CDE900B4FFF79FFE03B0BDE8F08F0020E5
:100720000146F9E7C1F30A52C1F3130140F2FF3366
:1007300041F480119A4202DA00200146704740F2EB
:1007400033439A42A2F2334202DC524200F03BB8F9
:1007500000F02AB830B5041E71F1000404DB4FF03C
:100760000044404264EB0101141E73F1000405DBF8
:100770001C464FF00043524263EB0403994208BF0A
:10078000904230BD064C074D06E0E06840F00103A2
:1007900094E8070098471034AC42F6D3FFF7AAFC60
:1007A000743E0008943E0008202A04DB203A00FA38
:1007B00002F1002070479140C2F1200320FA03F3B8
:1007C000194390407047202A04DB203A21FA02F0B6
:1007D0000021704721FA02F3D040C2F1200291407B
:1007E000084319467047202A06DBCB17203A41FA06
:1007F00002F043EAE07306E041FA02F3D040C2F1AE
:100800002002914008431946704770B58C1810F8C3
:10081000015B15F0070301D110F8013B2A1106D145
:1008200010F8012B03E010F8016B01F8016B5B1E5F
:10083000F9D12B0705D40023521E0DD401F8013B3A
:10084000FAE710F8013BCB1A921C03E013F8015BA6
:1008500001F8015B521EF9D5A142D8D3002070BD2A
:1008600021B1826842F00102826003E0826822F0D6
:10087000010282607047000070B5002500BF11E0E2
:1008800001210C4800F0F6F800BF0221094800F0F1
:1008900057F80128F9D1074800F04EF8204484B2F7
:1008A000681CC5B2322DEBDB322094FBF0F080B235
:1008B00070BD00000024014070B5002500BF11E0AC
:1008C00001210C4800F0D6F800BF0221094800F0D1
:1008D00037F80128F9D1074800F02EF8204484B2F7
:1008E000681CC5B2322DEBDB322094FBF0F080B2F5
:1008F00070BD00000024014070B5002500BF11E06C
:1009000001210C4800F0B6F800BF0221094800F0B0
:1009100017F80128F9D1074800F00EF8204484B2F6
:10092000681CC5B2322DEBDB322094FBF0F080B2B4
:1009300070BD0000002401400146C86C80B27047C1
:100940000246002013680B400BB1012000E000209C
:10095000704710B50023CBB21AB144681C43446001
:1009600002E044689C43446010BD000030B502467C
:100970000020002350680F4C20400D790C6844EA99
:1009800005242043506090680B4C2040D1E902546C
:100990002C434D7944EA450420439060D06A20F40A
:1009A00070000C7C641EE4B2234340EA0350D06222
:1009B00030BD0000FFFEF0FFFDF7F1FFF0B504468B
:1009C0000D4600200021092D11DDE068A5F10A0681
:1009D00006EB4607072606FA07F18843A5F10A0643
:1009E00006EB460603FA06F10843E0600CE02069D6
:1009F00005EB4507072606FA07F1884305EB450690
:100A000003FA06F108432061072A0FDA606B561ECD
:100A100006EB86071F2606FA07F18843561E06EBEB
:100A2000860605FA06F10843606322E00D2A0FDA14
:100A3000206BD61F06EB86071F2606FA07F18843B0
:100A4000D61F06EB860605FA06F10843206310E080
:100A5000E06AA2F10D0606EB86071F2606FA07F1EB
:100A60008843A2F10D0606EB860605FA06F1084357
:100A7000E062F0BD21B1826842F4A002826003E02E
:100A8000826822F4A00282607047000000B589B03D
:100A90000121084601F016F90121042001F022F994
:100AA00018208DF823000220ADF8200003208DF8D7
:100AB000220008A9184800F0E5FC0020ADF81A0053
:100AC000ADF816006320ADF8180040F2CF20ADF865
:100AD000140000208DF81C0005A94FF0804001F0A3
:100AE000E9FA01A801F0DAFA6020ADF8040000206C
:100AF000ADF80C000120ADF806000020ADF80A00AA
:100B000001A94FF0804001F077FA0121880701F038
:100B100067FA09B000BD00000008014000BFFEE711
:100B200008B54FF48050ADF8000048208DF8030060
:100B30006946024800F0A6FC08BD0000000C014018
:100B400008B54FF40050ADF8000048208DF80300C0
:100B50006946024800F096FC08BD0000000C014008
:100B600008B54FF48040ADF8000048208DF8030030
:100B70006946024800F086FC08BD0000000C0140F8
:100B80001FB54FF48050ADF8040010208DF8070019
:100B900003208DF8060001A9144800F073FC0C2115
:100BA000012000F04FFC4FF4A06000F02DFE282043
:100BB0008DF8000002208DF801008DF80200012060
:100BC0008DF80300684600F0E7FD4FF48050029076
:100BD00000208DF80C000C208DF80D0001208DF800
:100BE0000E0002A800F0CAFA1FBD0000000C014070
:100BF0001FB54FF40050ADF8040010208DF8070029
:100C000003208DF8060001A9144800F03BFC0C21DC
:100C1000012000F017FC4FF4A06000F0F5FD282043
:100C20008DF8000002208DF801008DF802000120EF
:100C30008DF80300684600F0AFFD4FF400500290BD
:100C400000208DF80C000C208DF80D0001208DF88F
:100C50000E0002A800F092FA1FBD0000000C014037
:100C60001FB54FF48040ADF8040010208DF8070048
:100C700003208DF8060001A9144800F003FC0C21A4
:100C8000012000F0DFFB4FF4A06000F0BDFD282044
:100C90008DF8000002208DF801008DF8020001207F
:100CA0008DF80300684600F077FD4FF48040029015
:100CB00000208DF80C000C208DF80D0001208DF81F
:100CC0000E0002A800F05AFA1FBD0000000C0140FF
:100CD00010B501217C2001F005F800F017F800F0B4
:100CE0000BF910BD10B501217C2000F0FBFF00F0D6
:100CF00023F800F02FF910BD10B501217C2000F081
:100D0000F1FF00F02FF800F053F910BD10B5FFF718
:100D100037FF4FF48051074800F048FC142000F0E2
:100D2000BCF84FF48051034800F042FC1E2000F054
:100D3000CCF810BD000C014010B5FFF759FF4FF47F
:100D40000051074800F032FC142000F0A6F84FF4E0
:100D50000051034800F02CFC1E2000F0B6F810BD36
:100D6000000C014010B5FFF77BFF4FF480410748AE
:100D700000F01CFC142000F090F84FF48041034870
:100D800000F016FC1E2000F0A0F810BD000C014081
:100D90007CB505460E46FFF7B9FF00F0ADF8F8B98F
:100DA000002405E000F0CBF90DF80400601CC4B28B
:100DB000052CF7DB9DF800009DF8011008449DF814
:100DC000021008449DF8031008449DF8041088425E
:100DD00008D19DF8000030709DF80200287001E0F5
:100DE00001207CBD0020FCE77CB505460E46FFF7E0
:100DF000A3FF00F0AFF8F8B9002405E000F0AEF969
:100E00000DF80400601CC4B2052CF7DB9DF800004F
:100E10009DF8011008449DF8021008449DF8031045
:100E200008449DF80410884208D19DF800003070F5
:100E30009DF80200287001E001207CBD0020FCE745
:100E40007CB505460E46FFF78DFF00F0B1F8F8B906
:100E5000002405E000F064F90DF80400601CC4B241
:100E6000052CF7DB9DF800009DF8011008449DF863
:100E7000021008449DF8031008449DF804108842AD
:100E800008D19DF8000030709DF80200287001E044
:100E900001207CBD0020FCE7704700B5034603E05D
:100EA0004FF47A7000F011F8181EA3F10103F7D186
:100EB00000BD10B5044603E04FF47A70FFF7EDFF74
:100EC000201EA4F10104F7D110BD00EBC001C90040
:100ED0004FF0E0225161002191610521116100BFB5
:100EE0004FF0E021096901F480310029F8D0042194
:100EF0004FF0E0221161704710B50024FFF710FE9B
:100F000004E0601CC4B20120FFF7DFFF4FF4805102
:100F10000F4800F042FB08B1642CF2DB642C01DBCB
:100F2000012010BD002404E0601CC4B20120FFF7C2
:100F3000CCFF4FF48051064800F02FFB08B9642C19
:100F4000F2DB642C01DB0120EBE70020E9E7000085
:100F5000000C014010B50024FFF7F2FD04E0601C16
:100F6000C4B20120FFF7B1FF4FF400510F4800F069
:100F700014FB08B1642CF2DB642C01DB012010BDF2
:100F8000002404E0601CC4B20120FFF79EFF4FF470
:100F90000051064800F001FB08B9642CF2DB642C18
:100FA00001DB0120EBE70020E9E70000000C014035
:100FB00010B50024FFF7D4FD04E0601CC4B201208A
:100FC000FFF783FF4FF480410F4800F0E6FA08B1C5
:100FD000642CF2DB642C01DB012010BD002404E052
:100FE000601CC4B20120FFF770FF4FF48041064837
:100FF00000F0D3FA08B9642CF2DB642C01DB012089
:10100000EBE70020E9E70000000C014010B50024E8
:1010100004E0601CC4B20120FFF757FF4FF4805179
:10102000104800F0BAFA08B1642CF2DB002404E0A6
:10103000601CC4B20120FFF748FF4FF480510948FB
:1010400000F0ABFA08B9642CF2DB2820FFF73DFF73
:101050004FF48051034800F0A0FA08B1012010BD00
:101060000020FCE7000C014010B5002404E0601CE7
:10107000C4B20120FFF729FF4FF40051104800F0DF
:101080008CFA08B1642CF2DB002404E0601CC4B2CA
:101090000120FFF71AFF4FF40051094800F07DFAD4
:1010A00008B9642CF2DB2820FFF70FFF4FF4005142
:1010B000034800F072FA08B1012010BD0020FCE7DF
:1010C000000C014010B5002404E0601CC4B20120F3
:1010D000FFF7FBFE4FF48041104800F05EFA08B1C4
:1010E000642CF2DB002404E0601CC4B20120FFF792
:1010F000ECFE4FF48041094800F04FFA08B9642C27
:10110000F2DB2820FFF7E1FE4FF48041034800F0B6
:1011100044FA08B1012010BD0020FCE7000C01409A
:1011200070B50024002506E06006040EFFF7CAFF34
:101130000443681CC5B2082DF6DB204670BD70B5AF
:101140000024002506E06006040EFFF75FFF04435D
:10115000681CC5B2082DF6DB204670BD70B50024B2
:10116000002506E06006040EFFF77EFF0443681CBE
:10117000C5B2082DF6DB204670BD000000212349D2
:101180008279002A3AD00A46126803689A430B46CD
:101190001A600A1D126803689A430B1D1A600279CF
:1011A00011440A6803681A430A60184A0832126830
:1011B00003689A43154B08331A601A1D12680368B6
:1011C0009A43124B0C331A604279102A0ED11A1F1F
:1011D000126803681A430D4B08331A601A1D12680F
:1011E00003681A43094B0C331A600DE00749427932
:1011F00011440A6803681A430A6005E00279114441
:101200000A6803689A430A607047000000040140BE
:1012100070B5002500BF11E001210C48FFF72AFC42
:1012200000BF02210948FFF78BFB0128F9D10748CD
:10123000FFF782FB204484B2681CC5B2322DEBDB81
:10124000322094FBF0F080B270BD00000024014019
:1012500070B5002500BF11E001210C48FFF70AFC22
:1012600000BF02210948FFF76BFB0128F9D10748AD
:10127000FFF762FB204484B2681CC5B2322DEBDB61
:10128000322094FBF0F080B270BD000000240140D9
:1012900070B5002500BF11E001210C48FFF7EAFB03
:1012A00000BF02210948FFF74BFB0128F9D107488D
:1012B000FFF742FB204484B2681CC5B2322DEBDB41
:1012C000322094FBF0F080B270BD00000024014099
:1012D00000B587B00121480200F004FD012104207F
:1012E00000F000FD00208DF81B001020ADF8180064
:1012F00006A9144800F0C6F800208DF809000490F3
:101300004FF4602003900020019001208DF814001C
:1013100000208DF8080001A90B48FFF727FB0723E1
:10132000012204210848FFF749FB01224FF408710C
:101330000548FFF70EFB01210348FFF791FA07B0BC
:1013400000BD0000000801400024014000B587B046
:101350000121480200F0C6FC0121082000F0C2FC77
:1013600000208DF81B000120ADF8180006A91448D4
:1013700000F088F800208DF8090004904FF46020F8
:1013800003900020019001208DF8140000208DF8BA
:10139000080001A90B48FFF7E9FA072301220821F9
:1013A0000848FFF70BFB01224FF408710548FFF7CF
:1013B000D0FA01210348FFF753FA07B000BD00003F
:1013C000000C01400024014000B587B00121480213
:1013D00000F088FC0121082000F084FC00208DF83A
:1013E0001B000220ADF8180006A9144800F04AF8C6
:1013F00000208DF8090004904FF460200390002035
:10140000019001208DF8140000208DF8080001A93A
:101410000B48FFF7ABFA0723012209210848FFF721
:10142000CDFA01224FF408710548FFF792FA012125
:101430000348FFF715FA07B000BD0000000C01409B
:101440000024014030B500228B071C0F0F2303FA44
:1014500004F20B4B8C1053F824309343084C8D103E
:1014600044F8253023468C1053F824308C07240F81
:1014700000FA04F42343024C8D1044F8253030BDAB
:10148000080001402DE9F041024600250026002019
:1014900000230024002791F803C00CF00F0591F8F9
:1014A00003C00CF0100CBCF1000F03D091F802C087
:1014B0004CEA050591F800C0BCF1000F31D014686A
:1014C00000202BE04FF0010C0CFA00F3B1F800C043
:1014D0000CEA03069E4220D183004FF00F0C0CFA59
:1014E00003F7BC4305FA03FC4CEA040491F803C07B
:1014F000BCF1280F06D14FF0010C0CFA00FCC2F829
:1015000014C00AE091F803C0BCF1480F05D14FF0B8
:10151000010C0CFA00FCC2F810C0401C0828D1D302
:101520001460B1F800C0BCF1FF0F34DD5468002036
:101530002EE000F1080C4FF0010808FA0CF3B1F8A6
:1015400000C00CEA03069E4221D183004FF00F0C2D
:101550000CFA03F7BC4305FA03FC4CEA040491F8C7
:1015600003C0BCF1280F05D100F1080C08FA0CF8F3
:10157000C2F8148091F803C0BCF1480F07D100F104
:10158000080C4FF0010808FA0CF8C2F81080401C53
:101590000828CED35460BDE8F0810246002093684D
:1015A0000B400BB1012000E0002070474161704703
:1015B0000161704700BFFEE710B540210748FFF703
:1015C000F7FF80210548FFF7F3FF80210348FFF76D
:1015D000EDFF40210148FFF7E9FF10BD000C01407D
:1015E00010B540210748FFF7E1FF80210548FFF7CC
:1015F000DDFF80210348FFF7DBFF40210148FFF7B3
:10160000D7FF10BD000C014008B50121102000F0EB
:1016100069FB10208DF803004002ADF800000320A4
:101620008DF8020069460248FFF72CFF08BD000054
:101630000010014000B587B00121480200F052FBC4
:101640000121042000F04EFB00208DF81B0001203A
:10165000ADF8180006A91248FFF714FF00208DF816
:1016600009000490019001208DF8140000208DF8ED
:10167000080001A90B48FFF779F90723012200218F
:101680000848FFF79BF901224FF408710548FFF75E
:1016900060F901210348FFF7E3F807B000BD00003F
:1016A000000801400024014000B587B00121480234
:1016B00000F018FB0121042000F014FB00208DF83D
:1016C0001B002020ADF8180006A91248FFF7DAFE2B
:1016D00000208DF809000490019001208DF814007D
:1016E00000208DF8080001A90B48FFF73FF90723F8
:1016F000012205210848FFF761F901224FF4087122
:101700000548FFF726F901210348FFF7A9F807B0BC
:1017100000BD0000000801400024014000B587B072
:101720000121480200F0DEFA0121042000F0DAFA7B
:1017300000208DF81B004020ADF8180006A91248C3
:10174000FFF7A0FE00208DF8090004900190012011
:101750008DF8140000208DF8080001A90B48FFF750
:1017600005F90723012206210848FFF727F901227E
:101770004FF408710548FFF7ECF801210348FFF723
:101780006FF807B000BD00000008014000240140D0
:1017900000BFFEE77047000070B5002100230F2254
:1017A000C47804B3154C246804F4E064C4F5E06420
:1017B000210AC1F10403CA40447804FA03F1847891
:1017C0001440214309010E4C0678A155047804F019
:1017D0001F050124AC4005786D11AD0005F1E02531
:1017E000C5F8004109E0047804F01F050124AC406D
:1017F000044D0678761145F8264070BD0CED00E0EA
:1018000000E400E080E100E002490143024A116087
:10181000704700000000FA050CED00E070B50024F0
:1018200018E004F1B000002100F02AFA00210220A3
:1018300000F026FA0021102000F022FA002505E031
:101840000121002000F01CFA681CC5B2802DF7DBD6
:10185000601CC4B2082CE4DB70BD000008B5012197
:101860004FF4947000F03EFAC020ADF80000102054
:101870008DF8030003208DF8020069464748FFF702
:1018800001FEC0214548FFF793FE0320ADF800009C
:1018900069464348FFF7F6FD03214148FFF788FEFC
:1018A0004FF40040ADF8000069463E48FFF7EAFDFE
:1018B0004FF400413B48FFF77BFE0021AE2000F0D3
:1018C000DFF90021022000F0DBF90021102000F0F8
:1018D000D7F90021402000F0D3F90021B02000F01A
:1018E000CFF90021812000F0CBF90021FF2000F08A
:1018F000C7F90021A12000F0C3F90021A62000F0C3
:10190000BFF90021A82000F0BBF900213F2000F022
:10191000B7F90021AD2000F0B3F900218B2000F0D1
:10192000AFF90021332000F0ABF90021C82000F00E
:10193000A7F90021D32000F0A3F90021084600F008
:101940009FF90021D52000F09BF90021802000F0B4
:1019500097F90021D82000F093F90021052000F02C
:101960008FF90021D92000F08BF900211F2000F011
:1019700087F90021DA2000F083F90021122000F01D
:101980007FF90021DB2000F07BF90021402000F0EE
:1019900077F90021AF2000F073F908BD000C014079
:1019A000001001400020014070B504460D4605F1CD
:1019B000B000002100F064F9102141EA1410002168
:1019C00000F05EF904F00F0141F00100002100F089
:1019D00057F970BD2DE9FF4F83B0074690461E466C
:1019E000109D00200290019000214046FEF792FCDD
:1019F00003D288F00048012002903B494046FEF7A0
:101A000093FB8346FEF742FC1FFA80FA002466E04F
:101A1000301B401EC1B20A2001F09EFDBAFBF0F05F
:101A20000A21B0FBF1F201FB1209019890BB701E74
:101A3000A04232DDB9F1000F2DD1301B801EC1B2A2
:101A40000A2001F089FDBAFBF0F00A21B0FBF1F2A7
:101A500001FB120088B1029801280ED1AB4605EBBC
:101A6000DB71491001FB0471C8B22B462D22049989
:101A700000F070F8002002900BE0AB4605EBDB7144
:101A8000491001FB0471C8B22B462022049900F0D2
:101A900061F822E001E001200190701EA0420DD10A
:101AA000AB4605EBDB71491001FB0471C8B22B4654
:101AB0002E22049900F04EF8601CC4B2AB4605EB30
:101AC000DB71491001FB0471C8B209F13001CAB2DF
:101AD0002B46049900F03EF800BF601CC4B2B4422B
:101AE00096DB07B0BDE8F08F000020412DE9F04102
:101AF00080460E461546002731464046FFF754FF04
:101B000000240AE0124A02EB8511085D012100F071
:101B1000B7F8781CC7B2601CC4B2102CF2DB701C82
:101B2000C1B24046FFF740FF00240CE06900491CA9
:101B3000074A02EB4111085D012100F0A1F8781C71
:101B4000C7B2601CC4B2102CF0DBBDE8F08100000D
:101B5000170000202DE9F04707460E4690469946AB
:101B600000250024A8F12000C5B27F2F02DD002748
:101B7000B01CC6B2B9F1100F24D131463846FFF778
:101B800013FF002408E004EB0511194A505C012101
:101B900000F076F8601CC4B2082CF4DB701CC1B2F3
:101BA0003846FFF701FF002409E004EB0511083176
:101BB0000F4A505C012100F063F8601CC4B2082C8D
:101BC000F3DB12E031463846FFF7EEFE00240AE070
:101BD00005EB4501074A02EB4101085D012100F0D8
:101BE0004FF8601CC4B2062CF2DBBDE8F0870000A1
:101BF000963700086E3500082DE9FF5F07469146CD
:101C00001E460E9D4FF0000A002435E0301B401E9A
:101C1000C1B20A2001F0A0FCB9FBF0F00A21B0FB30
:101C2000F1F201FB1208BAF1000F14D1701EA042AC
:101C300011DDB8F1000F0CD1AB4605EBDB7149109B
:101C400001FB0471C8B22B4620220199FFF782FFE5
:101C500010E04FF0010AAB4605EBDB71491001FBC8
:101C60000471C8B208F13001CAB22B460199FFF7DE
:101C700071FF00BF601CC4B2B442C7DBBDE8FF9F68
:101C800070B504460D466DB1FFF796FC782000F064
:101C900017FC402000F014FCE0B200F011FCFFF74C
:101CA0009FFC0CE0FFF788FC782000F009FC002086
:101CB00000F006FCE0B200F003FCFFF791FC70BD01
:101CC0007047000029B1064AD2690243044BDA6129
:101CD00004E0034AD2698243014BDA617047000095
:101CE0000010024029B1064A92690243044B9A61EE
:101CF00004E0034A92698243014B9A6170470000F5
:101D00000010024030B500210022002400232D4D98
:101D10006D6805F00C0121B1042905D0082923D1F3
:101D200005E0294D056022E0274D05601FE0254DA7
:101D30006D6805F47012234D6D6805F4803402253A
:101D400005EB92421CB9214D554305600BE01D4D3A
:101D50006D6805F400351DB11C4D5543056002E06A
:101D6000194D5543056002E0174D056000BF00BFE7
:101D7000144D6D6805F0F0010909154D6B5C05689F
:101D8000DD4045600F4D6D6805F4E061090A104DB6
:101D90006B5C4568DD4085600A4D6D6805F46051F7
:101DA000C90A0B4D6B5C4568DD40C560054D6D682B
:101DB00005F44041890B074D6B5CC568B5FBF3F535
:101DC000056130BD0010024000127A0000093D009C
:101DD00000000020100000207047000000B587B010
:101DE00001218803FFF77EFF01210420FFF77AFF1E
:101DF00018208DF81B004FF40070ADF81800032078
:101E00008DF81A0006A92148FFF73CFB48208DF801
:101E10001B004FF48060ADF8180003208DF81A0005
:101E200006A91A48FFF72EFB4FF4E130029000207C
:101E3000ADF814000C20ADF812000020ADF8100031
:101E4000ADF80E00ADF80C0002A9114800F046FAFA
:101E5000012240F225510E4800F01BFA4FF4A06019
:101E6000FFF7D2FC25208DF8040001208DF8070033
:101E70008DF805008DF8060001A8FFF78DFC012103
:101E8000034800F0C3F907B000BD0000000801409E
:101E90000038014010B500F001F810BD0CB500206D
:101EA000019000903348006840F480303149086068
:101EB00000BF3048006800F4003000900198401CDA
:101EC0000190009818B90198B0F5A06FF1D1294898
:101ED000006800F4003010B10120009001E0002003
:101EE00000900098012843D12348006840F010007A
:101EF000214908600846006820F003000860084691
:101F0000006840F0020008601A48406819494860BB
:101F10000846406848600846406840F48060486071
:101F20000846406820F47C1048600846406840F449
:101F3000E81048600846006840F08070086000BF04
:101F40000C48006800F000700028F9D0094840688B
:101F500020F00300074948600846406840F002004E
:101F6000486000BF0348406800F00C000828F9D121
:101F70000CBD00000010024000200240704700002D
:101F800010B51348006840F0010011490860084688
:101F90004068104908400E494860084600680E49EC
:101FA00008400B4908600846006820F4802008605B
:101FB0000846406820F4FE0048604FF41F00886027
:101FC000FFF768FF4FF000600449086010BD000093
:101FD000001002400000FFF8FFFFF6FE08ED00E0F1
:101FE00021B1028842F00102028004E002884FF62B
:101FF000FE731A400280704770B50024002200234F
:10200000058C4FF6EF7635400584028C8388048B6F
:1020100048F6FF752C404FF6FF452C400D884FF6D3
:10202000FF7606EA05252C434FF6DF752A400D8919
:1020300006EA05152A434D8806EA05152A43154D7B
:10204000A84202D0144DA8421DD14FF67F752A40F8
:102050004D894FF6FF7606EA05152A434FF6BF7500
:102060002A408D8806EA05152A434FF6FF352B4096
:102070004FF2FF752B408D8906EA85052B43CD89EC
:1020800006EA85052B4383800483CD880587028477
:1020900070BD0000002C014000340140002101808F
:1020A00041808180C180018141818181C1817047EE
:1020B00001877047002202881D4B98420ED01D4BAD
:1020C00098420BD0B0F1804F08D01B4B984205D0FE
:1020D0001A4B984202D01A4B984204D14FF68F7394
:1020E0001A404B881A43174B984207D0164B984218
:1020F00004D04FF6FF431A40CB881A4302808B88E6
:1021000083850B8803850A4B98420BD0094B984274
:1021100008D00E4B984205D00D4B984202D00D4B83
:10212000984201D10B7A0386012383827047000015
:10213000002C014000340140000400400008004031
:10214000000C00400010004000140040004001401E
:10215000004401400048014010B540F225510948B3
:1021600000F06DF801280CD1064800F023F906496B
:10217000087001200549087040F22551014800F01F
:1021800036F810BD00380140D7020020D8020020E8
:1021900010B540F225510E4800F051F8B0B10D488D
:1021A0000088802802D300200A4908800848001DC2
:1021B0000088C1B2074802880088401C054B18807F
:1021C000054881542021024800F008F810BD0000A5
:1021D00000440040DA020020E002002001F4007216
:1021E000B2F5007F00D100BFCA430280704710B52E
:1021F0000022002340F66A14A14200D100BF0A1257
:1022000001249440A3B2DC43048010BD21B1828933
:1022100042F40052828104E082894DF6FF731A4035
:102220008281704702460020B1F5007F00D100BFD7
:1022300013880B400BB1012000E00020704770B5FF
:102240000246002400230025002040F66A16B14211
:1022500000D100BFC1F3421501F01F03012606FAA9
:1022600003F3012D02D19689334006E0022D02D1FD
:10227000168A334001E0968A33400C12012606FA92
:1022800004F41688344013B10CB1012000E00020A2
:1022900070BDF0B50346002400260025002040F65E
:1022A0006A17B94200D100BF1846C1F3421401F0C9
:1022B0001F06012707FA06F5012C01D10C3004E0B6
:1022C000022C01D1103000E014301AB107682F43FE
:1022D000076002E00768AF430760F0BD2DE9F047F3
:1022E00086B005460E460024A24600BFA146002740
:1022F000B08900B100BF2F462C8A4CF6FF70044015
:10230000F08804432C82AC894EF6F3100440B08868
:1023100031890843718908430443AC81AC8A4FF684
:10232000FF400440B0890443AC8201A8FFF7EAFCF7
:102330001F48874202D1DDF810A001E0DDF80CA0B3
:10234000A88900F4004040B10AEBCA0000EB0A1073
:1023500031684900B0FBF1F807E00AEBCA0000EB76
:102360000A1031688900B0FBF1F86420B8FBF0F086
:1023700004012009642101FB1089A88900F40040B0
:1023800040B1322000EBC900B0FBF1F000F00700D3
:10239000044308E0322000EB09106421B0FBF1F0A7
:1023A00000F00F0004432C8106B0BDE8F087000068
:1023B0000038014001468888C0F308007047C1F327
:1023C00008028280704700BFFEE7000010B586B0AB
:1023D000044601210420FFF785FC01214804FFF792
:1023E00071FC18208DF817000420ADF814000320AC
:1023F0008DF8160005A91E48FFF744F804208DF853
:1024000017000820ADF8140003208DF8160005A968
:102410001748FFF737F801940020ADF810000C20A2
:10242000ADF80E000020ADF80C00ADF80A00ADF8D4
:10243000080001A90F48FFF751FF01210D48FFF7E0
:10244000E5FE012240F225510A48FFF722FF26202F
:102450008DF8000001208DF8030000208DF80100A8
:102460008DF802006846FFF797F906B010BD00002E
:1024700000080140004400400FB430B5CBB0054621
:1024800001AC50A800904FF4947101A8009B4F9AA2
:1024900000F044F8002000900BE014F8011B2846DF
:1024A000FFF78DFF00BF40212846FFF7BBFE002845
:1024B000F9D020780028F0D14BB030BC5DF814FB87
:1024C0002DE9F04105462C46002619E0274640211B
:1024D0001148FFF76BF807F08007802F04D18021A7
:1024E0000D48FFF765F803E080210B48FFF75EF821
:1024F0006006040E40210848FFF75AF8701CC6B267
:10250000082EE3DB40210448FFF750F84021024841
:10251000FFF74EF8BDE8F081000C01407CB50C00DF
:102520001D461646014601D0601E00E00020CDE9A0
:102530000010064B6A462946304600F0DBF8002CB6
:1025400002D0009A002111707CBD0000FB2D000814
:1025500002E008C8121F08C1002AFAD1704770476C
:10256000002001E001C1121F002AFBD170470000CA
:102570002DE9FF5F82B00021DDE90430020DDDF8B6
:1025800040B0034318D044F61050A2F2FF32424349
:102590001514119801281FD0A5EB0B00401C5FEA11
:1025A000000A4FF000064E4FDFF83891B046504613
:1025B00015D5CAF1000413E0119801244AA301289B
:1025C00001D16FEA0B010298119AC0E90031C0E90C
:1025D000024206B0BDE8F09FCBF10000DFE7044601
:1025E0000021404A491842EB0450CDE9001012E0A6
:1025F000E00707D032463B4640464946FEF720F802
:102600008046894632463B4610461946FEF718F882
:1026100006460F466410002CEAD1DDE90401DDE92D
:102620000023BAF1000F06DAFEF70AF842464B46DD
:10263000FEF706F805E0FDF7A9FD42464B46FDF71B
:10264000A5FD04460E460022284BFEF783F803D86A
:102650004FF0FF30014607E00022254B204631466F
:10266000FDF747FFFEF75EF8102409E0002C0ADBB7
:102670000A220023FDF778FE039B30321A55641EB0
:1026800050EA0102F2D1641C039AC4F1110314440C
:10269000119A012A03D0012208430DD10AE0084310
:1026A00004D000204FF0110B119072E7A3EB0B0543
:1026B0006D1E0DE05B4504DD4FF0000205F10105E4
:1026C00004E003DA4FF00002A5F10105002AECD086
:1026D00002981199C0E90231C0E9004579E700008C
:1026E000000014400000F03F300000000000F04304
:1026F0000000E03F2DE9FF4F95B09A468846064618
:102700000025EEE1252877D100242746F94A01214A
:10271000039400E0044316F8013F203B01FA03F064
:102720001042F7D130782A2811D06FF02F0330787B
:10273000A0F13002092A16D8039A44F0020402EBF1
:10274000820203EB42021044761C0390EFE758F834
:10275000042B0392002A03DA504244F400540390FD
:1027600044F00204761C30782E2816D116F8010F9A
:1027700044F004042A280DD06FF02F023078A0F125
:102780003003092B09D807EB870302EB4303C71873
:10279000761CF3E758F8047B761C30786C280FD051
:1027A00006DC4C2817D068280DD06A2814D104E024
:1027B000742810D07A280FD10DE044F400140AE0F8
:1027C00044F4801401E044F440147278824202D14F
:1027D00004F58014761C761C307866280BD013DC48
:1027E000582877D009DC002875D04528F6D046282F
:1027F000F4D047281AD193E118E0632835D0642833
:1028000079D0652812D18BE1702873D008DC672855
:10281000F1D069286FD06E280DD06F2806D1ACE0BA
:1028200073282CD0752874D0782853D05246179925
:1028300090476D1C54E1C4F30250022809D00328CC
:102840000DD0D8F8001004280DD00D6008F1040850
:1028500046E1D8F80010EA17C1E90052F6E7D8F8C7
:1028600000100D80F2E70D70F0E718F8041B8DF8EA
:10287000001000208DF80100EB46012003E058F81D
:1028800004BB4FF0FF3061074FF0000102D40DE0B0
:1028900009F101018946B9420FDA8145F8DB1BF8DD
:1028A00009100029F4D108E009F1010189468142AB
:1028B000FADB1BF809100029F6D103985346A0EB68
:1028C000090721463846179A00F080FA284400EBA1
:1028D000090507E044E008E10DE01BF8010B524652
:1028E00017999047B9F10109F7D253462146384666
:1028F000179AF2E039E00A21C4F302524FF0000BBC
:102900000091022A06D058F8040BC117032A09D0F7
:102910000AE023E008F1070020F00702F2E80201D4
:10292000904605E000B2C117042A01D140B2C11798
:10293000002906DA0A460021404261EB02012D22FD
:1029400002E0220504D52B228DF80420012203E0A9
:10295000E20701D02022F7E7914657E00A2100E084
:1029600010214FF0000B00910BE010214FF0000BF5
:1029700044F004040827009103E008204FF0000B06
:102980000090C4F30252022A05D058F8040B00212B
:10299000032A08D008E008F1070020F00702F2E857
:1029A0000201904603E080B2042A00D1C0B24FF089
:1029B000000922072AD53278702A07D0DDF800C036
:1029C0008CF0100C5CEA0B0C05D00EE040228DF868
:1029D0000420012208E050EA010306D030238DF8DC
:1029E00004308DF8052002229146009B83F00803F5
:1029F00053EA0B030AD150EA010201D1620705D55F
:102A000030228DF804204FF001097F1E3278582AB9
:102A100004D039A20C920CAA02920BE03BA2F9E777
:102A20005B46009AFDF7A0FC0C9B9B5C029A521E31
:102A30000292137050EA0102F2D1029804A9081A16
:102A400000F1200B600702D524F4803400E0012758
:102A50005F4502DDA7EB0B0000E0002000EB0B015F
:102A6000009003984944401A0390E00306D453466B
:102A70002146179A039800F0A9F90544002706E0BB
:102A800001A85246C05D179990476D1C7F1C4F45A9
:102A9000F6DBE0030CD553462146179A039800F065
:102AA00095F9054404E030205246179990476D1C73
:102AB0000099481E00900029F5DC08E00298029970
:102AC00052460078491C0291179990476D1CBBF142
:102AD0000001ABF1010BF1DC5BE100F065F90544AD
:102AE000761C307800287FF40DAE19B02846BDE87A
:102AF000F08F000009280100303132333435363789
:102B00003839616263646566000000003031323339
:102B100034353637383941424344454600000000D9
:102B2000600700D4062708F1070020F00700F0E84E
:102B30000223804603F0004C5FEA0C0001D097A00E
:102B400009E0200501D596A005E0E00701D095A099
:102B500001E0AFF24C001390307823F00043652879
:102B60000CD006DC452809D046281DD047287FD147
:102B70003BE0662818D067287AD136E00021112F73
:102B800001DB112000E0781CCDE9000104A90CA8AC
:102B9000FFF7EEFCDDE90D010C9A4FF0000B07F199
:102BA0000109109200914EE04FF000400097CDE9EE
:102BB000011004A90CA8FFF7DBFCDDE90D020C9B5A
:102BC0000F994FF0000B91461093009211B9791CA8
:102BD00000EB0109B7EB090003D4C0F1FF3B07F19B
:102BE0000109A9EB0700019042E0012F00DA01275B
:102BF0000021112F01DD112000E03846CDE9000150
:102C000004A90CA8FFF7B4FCDDE90D010C9A0091B2
:102C10004FF0000BB946109221070FD4009A4A4595
:102C200003DA914601E0A9F10109B9F1010F05DDCF
:102C3000109AA9F10101515C3029F4D0B84202DAAE
:102C400010F1040F03DA0121CDE9011010E0002892
:102C500003DC8344A9EB000102E0411C494500DD8F
:102C60008946A0EB0B00401C01904FF00040029001
:102C7000200705D40198484502DB4FF0FF30019052
:102C800000208DF84B0002980DF14B07B0F1004F7A
:102C900025D002200C902B200D90029800280CDAF1
:102CA000404202902D200D9007E00A210298FDF786
:102CB00045FB3031029007F8011D0C99481E0C901D
:102CC0000029F2DC02980028EFD1791E0D980870D7
:102CD000307800F0200040F0450007F8020D11A800
:102CE000C01BC01D02901398007800B1012000EBBA
:102CF0000901019801EBE071029801440398401A20
:102D0000401E0390E00306D453462146179A0398C9
:102D100000F05CF805441398007818B152461799F2
:102D200090476D1CE00323D553462146179A03981C
:102D300000F04CF805441BE0BBF1000F07DB0098E6
:102D4000584504DD1098179910F80B0001E0179909
:102D500030205246904701980BF1010B401E05F1BF
:102D60000105019004D12E205246179990476D1C01
:102D7000B9F10001A9F10109DEDC05E017F8010B4A
:102D80005246179990476D1C0299481E02900029DF
:102D9000F4DC53462146179A03989EE62D00000066
:102DA0002B000000200000002DE9F0410446002522
:102DB0001E461746880404D405E039462020B04753
:102DC0006D1C641EF9D52846BDE8F0812DE9F0415F
:102DD000044600251E469046C80301D5302700E072
:102DE0002027880404D505E041463846B0476D1CCD
:102DF000641EF9D52846BDE8F0814A68002A06D04D
:102E00000A68531C0B6010704868401E4860704789
:102E100010B54FF400510E48FEF7C8FB4FF4FA709E
:102E2000FEF73BF84FF400510948FEF7C1FB4FF4A1
:102E3000FA70FEF732F807480078401C0549087020
:102E4000084600780C2801DD0020087010BD000045
:102E50000010014016000020FEF7D6FBFEF738FAFE
:102E6000FEF774FAFEF7B0FAFDF732FFFDF73AFF0E
:102E7000FDF742FFFDF70AFEC820FEF70EF8FEF749
:102E8000D9FBFEF711FCFEF749FCFEF7E7FCFEF765
:102E9000A5FF4FF4E130FFF799FAFEF7BFFC0622D9
:102EA00001212820FEF722FE072201213820FEF70B
:102EB0001DFE00221F4801781046FEF717FE012272
:102EC0001C4801781020FEF711FE10233A22194801
:102ED00001782020FEF73EFE0422174801780020EA
:102EE000FEF704FE0322144801781020FEF7FEFDD1
:102EF00010233A22104801782020FEF72BFE0522ED
:102F00000D4801784020FEF7F1FD03220A480178C0
:102F10005020FEF7EBFD10233A220748017860208D
:102F2000FEF718FE0320FDF7C4FF01E000F006F8ED
:102F3000FCE7000014000020150000202DE9F04FF0
:102F40009BB000201990189017901690159014902F
:102F5000002400BF00BF00BF00BF00BFFDF78CFC16
:102F6000044604EB441101EB4100FDF77EF9002219
:102F7000FE4BCDE90C01FDF709F90746FDF7ADF968
:102F80008146FDF799FC054605EB451101EB410033
:102F9000FDF76BF90022F54BCDE90C01FDF7F6F8D2
:102FA0000746FDF79AF98246FDF7A6FC064606EBB2
:102FB000461101EB4100FDF758F90022EB4BCDE93A
:102FC0000C01FDF7E3F80746FDF787F98346FEF7A6
:102FD0001FF91390139901EB411101EB4100FDF72B
:102FE00044F907460022E14BFDF7D0F8CDE90C018A
:102FF000FDF773F91090FEF72BF91290129901EB7F
:10300000411101EB4100FDF730F90022D74BCDE92A
:103010000C01FDF7BBF80746FDF75FF90F90FEF7CF
:1030200037F91190119901EB411101EB4100FDF7C6
:103030001CF90022CD4BCDE90C01FDF7A7F807469E
:10304000FDF74BF90E9018A919A8FDF7A1FE16A9D6
:1030500017A8FDF7C9FE14A915A8FDF7F1FE08226F
:10306000C34801785020FEF741FD0A22C04801788C
:103070006020FEF73BFDBF480078042825DA1020C9
:1030800001231A46194600904820FEF7B5FD10208E
:1030900003234A460090B64801782820FEF79AFCA0
:1030A0001020022300909DF86420B3480178282066
:1030B000FEF7A2FD1020022300909DF86020AE488C
:1030C00001786820FEF798FD52E0AA4800780428AD
:1030D00029DBA8480078082825DA102001230222DD
:1030E000194600904820FEF787FD10200323524622
:1030F00000909F4801782820FEF76CFC10200223E6
:1031000000909DF85C209C4801782820FEF774FD13
:103110001020022300909DF85820974801786820DD
:10312000FEF76AFD24E010200123032219460090D7
:103130004820FEF761FD102003235A4600908C487A
:1031400001782820FEF746FC1020022300909DF80D
:103150005420894801782820FEF74EFD10200223D4
:1031600000909DF85020844801786820FEF744FDC7
:103170000120FDF79EFE5846FDF79CF8074688465D
:103180005046FDF797F8CDE90C014846FDF792F857
:10319000CDE90878CDE90A019DF850009DF854105A
:1031A000CDE90610DDE90C01CDE904019DF85800D8
:1031B0009DF85C10CDE90210DDE90A01CDE90001BE
:1031C0009DF860309DF864206C496D48FFF754F914
:1031D000FFF71EFE38E0FDF74FFB044604EB4411F9
:1031E00001EB4100FDF741F8074600225F4BFCF779
:1031F000CDFFCDE90C01FDF770F8814618A919A89B
:10320000FDF7C6FD4FF400515E48FEF7CFF93221BD
:103210004807FEF74DFF0922554801785020FEF778
:1032200065FC0A22524801786020FEF75FFC4FF4EB
:10323000FA70FDF732FE00214FF08040FEF738FFB4
:103240004FF4FA70FDF729FE4F494846FDF76CF838
:10325000C1D39DF864003228BDDC9DF860002D28A4
:10326000B9DB4A491098FDF75FF8B4D338E0FDF7B1
:1032700003FB054605EB451101EB4100FCF7F5FFAB
:1032800007460022394BFCF781FFCDE90C01FDF721
:1032900024F8824616A917A8FDF77AFD4FF40051CD
:1032A0003848FEF783F932214807FEF701FF09226B
:1032B0002F4801785020FEF719FC0A222C4801788B
:1032C0006020FEF713FC4FF4FA70FDF7E6FD0021D5
:1032D0004FF08040FEF7ECFE4FF4FA70FDF7DDFD95
:1032E00029495046FDF720F8C1D39DF85C003228EB
:1032F000BDDC9DF858002D28B9DB24490F98FDF757
:1033000013F8B4D34CE0FDF7B7FA064606EB4611C6
:1033100001EB4100FCF7A9FF07460022134BFCF725
:1033200035FFCDE90C01FCF7D8FF834614A915A899
:10333000FDF72EFD4FF400511248FEF737F9322108
:103340004807FEF7B5FE0922094801785020FEF72C
:10335000CDFB0A22064801786020FEF7C7FB4FF438
:10336000FA70FDF79AFD002112E000000000B04065
:10337000140000201600002015000020883D0008E1
:103380000044004000100140000048420000FA44A0
:103390004FF08040FEF78CFE4FF4FA70FDF77DFD94
:1033A00034495846FCF7C0FFADD39DF8540032288D
:1033B000A9DC9DF850002D28A5DB2F490E98FCF7BD
:1033C000B3FFA0D34846FCF775FF2246CDE90001C4
:1033D0002AA13148FFF750F85046FCF76BFF2A4608
:1033E000CDE900012DA12C48FFF746F85846FCF71F
:1033F00061FF3246CDE900012FA12748FFF73CF8D5
:103400009DF860309DF8642032A12348FFF734F81E
:103410009DF858309DF85C2034A11F48FFF72CF828
:103420009DF850309DF8542036A11B48FFF724F832
:103430001098FCF73FFF07463A460B4637A116485F
:10344000FFF71AF80F98FCF735FF07463A460B4688
:1034500037A11148FFF710F80E98FCF72BFF07462D
:103460003A460B4637A10C48FFF706F81BB0BDE8FB
:10347000F08F0000000048420000FA44D1CCCEEDAD
:10348000313A31203D2025642C32203D20252E3339
:103490006620250D0A00000000380140D1CCCEED99
:1034A000323A31203D2025642C32203D20252E3318
:1034B0006620250D0A000000D1CCCEED333A312034
:1034C0003D2025642C32203D20252E336620250DFD
:1034D0000A000000CEC2B6C8313A2025642CCAAA20
:1034E000B6C83A20256420250D0A0000CEC2B6C811
:1034F000323A2025642CCAAAB6C8323A2025642064
:10350000250D0A00CEC2B6C8333A2025642CCAAABB
:10351000B6C8333A20256420250D0A00BBF0D1E659
:10352000B4ABB8D0313A20252E660D0A0000000059
:10353000BBF0D1E6B4ABB8D0323A20252E660D0AE6
:1035400000000000BBF0D1E6B4ABB8D0333A202580
:103550002E660D0A0000000010B50246012000E0B2
:1035600050430B1EA1F10104E1B2F9D110BD0000DE
:10357000000000000000002F00000000070007000E
:1035800000147F147F1400242A7F2A12006264082A
:1035900013230036495522500000050300000000A7
:1035A0001C224100000041221C000014083E0814A7
:1035B0000008083E0808000000A060000008080895
:1035C0000808000060600000002010080402003EAF
:1035D0005149453E0000427F40000042615149464A
:1035E000002141454B31001814127F10002745453A
:1035F0004539003C4A49493000017109050300364C
:103600004949493600064949291E0000363600005E
:103610000000563600000008142241000014141463
:10362000141400004122140800020151090600325E
:103630004959513E007C1211127C007F494949369C
:10364000003E41414122007F4141221C007F494907
:103650004941007F09090901003E4149497A007F3B
:103660000808087F0000417F4100002040413F01E1
:10367000007F08142241007F40404040007F020C40
:10368000027F007F0408107F003E4141413E007FE1
:1036900009090906003E4151215E007F09192946AA
:1036A0000046494949310001017F0101003F404086
:1036B000403F001F2040201F003F4038403F006334
:1036C0001408146300070870080700615149454356
:1036D00000007F41410000552A552A550000414114
:1036E0007F0000040201020400404040404000000E
:1036F00001020400002054545478007F48444438A8
:1037000000384444442000384444487F003854542E
:10371000541800087E0901020018A4A4A47C007FAC
:10372000080404780000447D4000004080847D004F
:10373000007F102844000000417F4000007C0418F6
:103740000478007C0804047800384444443800FCC1
:10375000242424180018242418FC007C08040408DD
:1037600000485454542000043F444020003C404052
:10377000207C001C2040201C003C4030403C004489
:1037800028102844001CA0A0A07C004464544C4491
:1037900014141414141400000000000000000000B1
:1037A000000000000000000000F800000000000021
:1037B00000333000000000100C06100C0600000062
:1037C00000000000000040C07840C0784000043F86
:1037D00004043F040400007088FC08300000001856
:1037E00020FF211E0000F008F000E018000000217A
:1037F0001C031E211E0000F00888700000001E211E
:1038000023241927211010160E00000000000000CC
:10381000000000000000000000E0180402000000AA
:1038200000071820400000020418E00000000040DB
:10383000201807000000404080F080404000020255
:10384000010F01020200000000F000000000010171
:10385000011F01010100000000000000000080B015
:1038600070000000000000000000000000000001E7
:103870000101010101010000000000000000003012
:1038800030000000000000000000806018040060AC
:1038900018060100000000E010080810E000000F0A
:1038A000102020100F00001010F800000000002071
:1038B000203F2020000000700808088870000030B9
:1038C0002824222130000030088888483000001861
:1038D000202020110E000000C02010F8000000077A
:1038E0000424243F240000F80888880808000019F0
:1038F000212020110E0000E0108888180000000F21
:10390000112020110E0000380808C83808000000F7
:10391000003F000000000070880808887000001C4C
:10392000222121221C0000E010080810E000000005
:10393000312222110F00000000C0C0000000000072
:103940000030300000000000008000000000000097
:10395000806000000000000080402010080000018E
:103960000204081020004040404040404000040451
:10397000040404040400000810204080000000201B
:10398000100804020100007048080808F000000058
:10399000003036010000C030C828E810E0000718E9
:1039A000272423140B000000C038E0000000203C56
:1039B00023020227382008F8888888700000203FFA
:1039C000202020110E00C030080808083800071811
:1039D00020202010080008F808080810E000203F08
:1039E000202020100F0008F88888E8081000203FE9
:1039F00020202320180008F88888E8081000203FBD
:103A0000200003000000C030080808380000071834
:103A10002020221E020008F808000008F808203FB5
:103A2000210101213F20000808F8080800000020BB
:103A3000203F2020000000000808F8080800C0808F
:103A400080807F00000008F888C028180800203F08
:103A500020012638200008F8080000000000203F60
:103A600020202020300008F8F800F8F80800203F57
:103A7000003F003F200008F830C00008F808203F51
:103A8000200007183F00E01008080810E0000F10A1
:103A9000202020100F0008F808080808F000203F38
:103AA000210101010000E01008080810E0000F18D3
:103AB000242438504F0008F8888888887000203FF8
:103AC0002000030C302000708808080838000038F7
:103AD000202121221C00180808F8080818000000FE
:103AE000203F2000000008F808000008F808001F28
:103AF000202020201F000878880000C83808000017
:103B000007380E010000F80800F80008F800033C30
:103B10000700073C030008186880806818082030F8
:103B20002C03032C30200838C800C83808000000D7
:103B3000203F2000000010080808C838080020387E
:103B4000262120201800000000FE020202000000D2
:103B5000007F40404000000C30C00000000000002A
:103B600000010638C00000020202FE000000004012
:103B700040407F0000000000040202020400000038
:103B80000000000000000000000000000000808035
:103B9000808080808080000202040000000000001D
:103BA00000000000000000008080808000000019FC
:103BB000242222223F2008F8008080000000003FDD
:103BC000112020110E000000008080800000000EF7
:103BD000112020201100000000808088F800000ED5
:103BE000112020103F200000808080800000001FF6
:103BF000222222221300008080F08888881800206A
:103C0000203F202000000000808080808000006B2A
:103C100094949493600008F8008080800000203F16
:103C2000210000203F200080989800000000002024
:103C3000203F20200000000000809898000000C075
:103C40008080807F000008F8000080808000203F96
:103C500024022D302000000808F800000000002099
:103C6000203F202000008080808080808000203FD6
:103C700020003F20003F8080008080800000203FA7
:103C8000210000203F200000808080800000001F75
:103C9000202020201F00808000808000000080FF06
:103CA000A12020110E000000008080808000000E06
:103CB000112020A0FF808080800080808000202054
:103CC0003F212000010000008080808080000033C0
:103CD000242424241900008080E08080000000005B
:103CE000001F202000008080000000808000001F56
:103CF000202020103F2080808000008080800001F4
:103D00000E300806010080800080008080800F3027
:103D10000C030C300F0000808000808080000020A9
:103D2000312E0E31200080808000008080808081D4
:103D30008E70180601000080808080808000002145
:103D4000302C2221300000000000807C02020000A4
:103D50000000003F404000000000FF0000000000A5
:103D60000000FF0000000002027C80000000004014
:103D7000403F0000000000060101020204040000B0
:103D8000000000000000000041542B4D51545450DD
:103D900055423D302C222F7379732F6B306631677B
:103DA0004F414F5049642F666972652F7468696E80
:103DB000672F6576656E742F70726F706572747997
:103DC0002F706F7374222C227B5C22706172616D84
:103DD000735C223A7B5C2274656D706572617475E8
:103DE00072655C223A25645C2C09095C2268756D59
:103DF00069646974795C223A25645C2C5C2279617F
:103E00006E77755C223A252E31665C2C5C227465D7
:103E10006D70325C223A25645C2C5C2268756D6999
:103E2000325C223A25645C2C5C2279616E777532B3
:103E30005C223A252E31665C2C09095C2274656D82
:103E400070335C223A25645C2C5C2268756D6933A2
:103E50005C223A25645C2C5C2279616E7775335C58
:103E6000223A252E31665C7D7D222C312C300D0AC4
:103E700000000000943E000800000020E002000066
:103E80000A080008DC3F0008E0020020800400006F
:103E900060250008412D0102030404100B060708E9
:103EA00009020406080C0E1380701809FF1008FEA2
:103EB000424242FA040211FE001011806018070805
:103EC00010FF50484641424C40FF1809100C055560
:103ED00055D5057F060D105505140C20180C101033
:103EE0008AA96B352525ABE9080C091020000E12B4
:103EF00060028C201808C838CF08082898001013D2
:103F000004047E01040201FF4021060A112040281A
:103F100009FC242424FC252624080211040810137B
:103F200040308F80844C55252525554C80808080DD
:103F3000212BFE92010910FE49801E407E42427EE6
:103F4000020B10427E803940493F091740080B168A
:103F50004448507F40407F504844C01C2566A4061A
:103F60000312243C000F1340300F8141310F090927
:103F7000094989790114F80106080912F012121290
:103F8000F20202028132FF161F1111111F041340A9
:103F9000807F2C0202C23A2A82010A11028019B9DA
:103FA0005904290101134A7EFD061292929E80E077
:103FB0002F088848281E08012AFE05011100101349
:103FC000201808EAACA8A8AFA8A8ACEA0828181AD4
:0C3FD0003E9F00081C02FF020212221E8D
:04000005080000ED02
:00000001FF
